{
  "transactions": [
    {
      "hash": "0x551c7cc1b28ba8dae0b7b82a5eeb388e11efd5724c4e6a5ea3f57af67d73073e",
      "transactionType": "CALL",
      "contractName": null,
      "contractAddress": "0x5274a2153cf842e3bd1d4996e01d567750d0e739",
      "function": "createTimeVault(address,uint256,uint256)",
      "arguments": [
        "0x0000000000000000000000000000000000000000",
        "100000000000000000",
        "1750955399"
      ],
      "transaction": {
        "from": "0x1b2fc03ad5405347a60b407929633ffc544f1db6",
        "to": "0x5274a2153cf842e3bd1d4996e01d567750d0e739",
        "gas": "0x36d1e",
        "value": "0x16345785d8a0000",
        "input": "0x8a389fc10000000000000000000000000000000000000000000000000000000000000000000000000000000000000000000000000000000000000000016345785d8a000000000000000000000000000000000000000000000000000000000000685d7587",
        "nonce": "0x1e",
        "chainId": "0xa869"
      },
      "additionalContracts": [],
      "isFixedGasLimit": false
    },
    {
      "hash": "0xccbaccd5459a6a9e85c2284e88b9c71c52f09a258e0edc8ada1f7a4bae66c2ad",
      "transactionType": "CALL",
      "contractName": null,
      "contractAddress": "0x5274a2153cf842e3bd1d4996e01d567750d0e739",
      "function": "createPriceVault(address,uint256,uint256)",
      "arguments": [
        "0x0000000000000000000000000000000000000000",
        "100000000000000000",
        "244280620000"
      ],
      "transaction": {
        "from": "0x1b2fc03ad5405347a60b407929633ffc544f1db6",
        "to": "0x5274a2153cf842e3bd1d4996e01d567750d0e739",
        "gas": "0x41ed6",
        "value": "0x16345785d8a0000",
        "input": "0x39a345c80000000000000000000000000000000000000000000000000000000000000000000000000000000000000000000000000000000000000000016345785d8a000000000000000000000000000000000000000000000000000000000038e04273e0",
        "nonce": "0x1f",
        "chainId": "0xa869"
      },
      "additionalContracts": [],
      "isFixedGasLimit": false
    },
    {
      "hash": "0x5e40e7a769918a1a2dff29bc85b6c233754606e9be1430011587310cc593206c",
      "transactionType": "CALL",
      "contractName": null,
      "contractAddress": "0x5274a2153cf842e3bd1d4996e01d567750d0e739",
      "function": "createTimeOrPriceVault(address,uint256,uint256,uint256)",
      "arguments": [
        "0x0000000000000000000000000000000000000000",
        "100000000000000000",
        "1750955399",
        "244280620000"
      ],
      "transaction": {
        "from": "0x1b2fc03ad5405347a60b407929633ffc544f1db6",
        "to": "0x5274a2153cf842e3bd1d4996e01d567750d0e739",
        "gas": "0x450c2",
        "value": "0x16345785d8a0000",
        "input": "0x6996c9980000000000000000000000000000000000000000000000000000000000000000000000000000000000000000000000000000000000000000016345785d8a000000000000000000000000000000000000000000000000000000000000685d758700000000000000000000000000000000000000000000000000000038e04273e0",
        "nonce": "0x20",
        "chainId": "0xa869"
      },
      "additionalContracts": [],
      "isFixedGasLimit": false
    }
  ],
  "receipts": [
    {
      "status": "0x1",
      "cumulativeGasUsed": "0x5c459",
      "logs": [
        {
          "address": "0x5274a2153cf842e3bd1d4996e01d567750d0e739",
          "topics": [
            "0xbcc702e99b0ad8d22e100d96ae453ca9aa06f2efc56af3692b83c2fbe902e360",
            "0x0000000000000000000000000000000000000000000000000000000000000005",
            "0x0000000000000000000000001b2fc03ad5405347a60b407929633ffc544f1db6",
            "0x0000000000000000000000000000000000000000000000000000000000000000"
          ],
          "data": "0x000000000000000000000000000000000000000000000000016345785d8a0000000000000000000000000000000000000000000000000000000000000000000000000000000000000000000000000000000000000000000000000000685d75870000000000000000000000000000000000000000000000000000000000000000",
          "blockHash": "0x9b74ee0161364883f726e9b7846552d7bb27272cd1cf76835a810330cef99d69",
          "blockNumber": "0x288c6e2",
          "transactionHash": "0x551c7cc1b28ba8dae0b7b82a5eeb388e11efd5724c4e6a5ea3f57af67d73073e",
          "transactionIndex": "0x1",
          "logIndex": "0x7",
          "removed": false
        }
      ],
      "logsBloom": "0x20200000000000000000000000000000000000080000001000000000000000000000000000000000000000000000000000000000000000000000000000000000000010000000000000020000000000000000000000000000000000000000000000000000020000000000008000000800000000000000000000000000000000000000000000000000000000000000001000000800000000000000000000000000000000000000000000000000000001000000000000000000000000000000000000000000000000000000000000000000000000000000000000000000000020000000000010000000000000000000000000000400000000000000000000000000",
      "type": "0x2",
      "transactionHash": "0x551c7cc1b28ba8dae0b7b82a5eeb388e11efd5724c4e6a5ea3f57af67d73073e",
      "transactionIndex": "0x1",
      "blockHash": "0x9b74ee0161364883f726e9b7846552d7bb27272cd1cf76835a810330cef99d69",
      "blockNumber": "0x288c6e2",
      "gasUsed": "0x285f5",
      "effectiveGasPrice": "0x570",
      "from": "0x1b2fc03ad5405347a60b407929633ffc544f1db6",
      "to": "0x5274a2153cf842e3bd1d4996e01d567750d0e739",
      "contractAddress": null
    },
    {
      "status": "0x1",
      "cumulativeGasUsed": "0x8a08b",
      "logs": [
        {
          "address": "0x5274a2153cf842e3bd1d4996e01d567750d0e739",
          "topics": [
            "0xbcc702e99b0ad8d22e100d96ae453ca9aa06f2efc56af3692b83c2fbe902e360",
            "0x0000000000000000000000000000000000000000000000000000000000000006",
            "0x0000000000000000000000001b2fc03ad5405347a60b407929633ffc544f1db6",
            "0x0000000000000000000000000000000000000000000000000000000000000000"
          ],
          "data": "0x000000000000000000000000000000000000000000000000016345785d8a00000000000000000000000000000000000000000000000000000000000000000001000000000000000000000000000000000000000000000000000000000000000000000000000000000000000000000000000000000000000000000038e04273e0",
          "blockHash": "0x9b74ee0161364883f726e9b7846552d7bb27272cd1cf76835a810330cef99d69",
          "blockNumber": "0x288c6e2",
          "transactionHash": "0xccbaccd5459a6a9e85c2284e88b9c71c52f09a258e0edc8ada1f7a4bae66c2ad",
          "transactionIndex": "0x2",
          "logIndex": "0x8",
          "removed": false
        }
      ],
      "logsBloom": "0x20200000000000000000000000000000000000080000001000000000000000000000000000000000000000000000000000000000000400000000000000000000000000000000000000020000000000000000000000000000000000000000000000000000020000000000008000000800000000000000000000000000000000000000000400000000000000000000000000000000000000000000000000000000000000000000000000000000000001000000000000000000000000080000000000000000000000000000000000000000000000000000000000000000000020000000000010000000000000000000000000000400000000000000000000000000",
      "type": "0x2",
      "transactionHash": "0xccbaccd5459a6a9e85c2284e88b9c71c52f09a258e0edc8ada1f7a4bae66c2ad",
      "transactionIndex": "0x2",
      "blockHash": "0x9b74ee0161364883f726e9b7846552d7bb27272cd1cf76835a810330cef99d69",
      "blockNumber": "0x288c6e2",
      "gasUsed": "0x2dc32",
      "effectiveGasPrice": "0x570",
      "from": "0x1b2fc03ad5405347a60b407929633ffc544f1db6",
      "to": "0x5274a2153cf842e3bd1d4996e01d567750d0e739",
      "contractAddress": null
    },
    {
      "status": "0x1",
      "cumulativeGasUsed": "0xbcb4f",
      "logs": [
        {
          "address": "0x5274a2153cf842e3bd1d4996e01d567750d0e739",
          "topics": [
            "0xbcc702e99b0ad8d22e100d96ae453ca9aa06f2efc56af3692b83c2fbe902e360",
            "0x0000000000000000000000000000000000000000000000000000000000000007",
            "0x0000000000000000000000001b2fc03ad5405347a60b407929633ffc544f1db6",
            "0x0000000000000000000000000000000000000000000000000000000000000000"
          ],
          "data": "0x000000000000000000000000000000000000000000000000016345785d8a0000000000000000000000000000000000000000000000000000000000000000000200000000000000000000000000000000000000000000000000000000685d758700000000000000000000000000000000000000000000000000000038e04273e0",
          "blockHash": "0x9b74ee0161364883f726e9b7846552d7bb27272cd1cf76835a810330cef99d69",
          "blockNumber": "0x288c6e2",
          "transactionHash": "0x5e40e7a769918a1a2dff29bc85b6c233754606e9be1430011587310cc593206c",
          "transactionIndex": "0x3",
          "logIndex": "0x9",
          "removed": false
        }
      ],
      "logsBloom": "0x20200000000000000000000000000000000000080000001000000000000000000000000000000000000000000000000000001000000000000000000000000000000020000000000000020000000000000000000000000000000000000000000000000000020000000000008000000800000000000000000000000000000000000000000000000000000000000000000000000000000000000000000000000000000000000000000000000000000001000000000000000000000000000000000000000000000000000000000000000000000000000000000000000100000020000000000010000000000000000000000000000400000000000000000000000000",
      "type": "0x2",
      "transactionHash": "0x5e40e7a769918a1a2dff29bc85b6c233754606e9be1430011587310cc593206c",
      "transactionIndex": "0x3",
      "blockHash": "0x9b74ee0161364883f726e9b7846552d7bb27272cd1cf76835a810330cef99d69",
      "blockNumber": "0x288c6e2",
      "gasUsed": "0x32ac4",
      "effectiveGasPrice": "0x570",
      "from": "0x1b2fc03ad5405347a60b407929633ffc544f1db6",
      "to": "0x5274a2153cf842e3bd1d4996e01d567750d0e739",
      "contractAddress": null
    }
  ],
  "libraries": [],
  "pending": [],
  "returns": {},
  "timestamp": 1750955370,
  "chain": 43113,
  "commit": null
}