{
  "transactions": [
    {
      "hash": "0xd6d68636ea93aa4003972a663ccf480b44e5907055e436d3ef67cab71a7bb643",
      "transactionType": "CALL",
      "contractName": null,
      "contractAddress": "0x5274a2153cf842e3bd1d4996e01d567750d0e739",
      "function": "createTimeVault(address,uint256,uint256)",
      "arguments": [
        "0x0000000000000000000000000000000000000000",
        "10000000000000000",
        "1750952905"
      ],
      "transaction": {
        "from": "0x1b2fc03ad5405347a60b407929633ffc544f1db6",
        "to": "0x5274a2153cf842e3bd1d4996e01d567750d0e739",
        "gas": "0x3a0a5",
        "value": "0x2386f26fc10000",
        "input": "0x8a389fc10000000000000000000000000000000000000000000000000000000000000000000000000000000000000000000000000000000000000000002386f26fc1000000000000000000000000000000000000000000000000000000000000685d6bc9",
        "nonce": "0x19",
        "chainId": "0xa869"
      },
      "additionalContracts": [],
      "isFixedGasLimit": false
    },
    {
      "hash": "0x903eae66caf04bbadcc2393d5cf3c4b5b0232a70afc4ec847df9fbb708a23cb4",
      "transactionType": "CALL",
      "contractName": null,
      "contractAddress": "0x5274a2153cf842e3bd1d4996e01d567750d0e739",
      "function": "createPriceVault(address,uint256,uint256)",
      "arguments": [
        "0x0000000000000000000000000000000000000000",
        "10000000000000000",
        "244280620000"
      ],
      "transaction": {
        "from": "0x1b2fc03ad5405347a60b407929633ffc544f1db6",
        "to": "0x5274a2153cf842e3bd1d4996e01d567750d0e739",
        "gas": "0x3e42b",
        "value": "0x2386f26fc10000",
        "input": "0x39a345c80000000000000000000000000000000000000000000000000000000000000000000000000000000000000000000000000000000000000000002386f26fc1000000000000000000000000000000000000000000000000000000000038e04273e0",
        "nonce": "0x1a",
        "chainId": "0xa869"
      },
      "additionalContracts": [],
      "isFixedGasLimit": false
    },
    {
      "hash": "0x6a06b926620883bd790fe1f203ad1bfd8dd23cdb32b429bc23a1cbb09b9ff04c",
      "transactionType": "CALL",
      "contractName": null,
      "contractAddress": "0x5274a2153cf842e3bd1d4996e01d567750d0e739",
      "function": "createTimeOrPriceVault(address,uint256,uint256,uint256)",
      "arguments": [
        "0x0000000000000000000000000000000000000000",
        "10000000000000000",
        "1750952905",
        "244280620000"
      ],
      "transaction": {
        "from": "0x1b2fc03ad5405347a60b407929633ffc544f1db6",
        "to": "0x5274a2153cf842e3bd1d4996e01d567750d0e739",
        "gas": "0x450b2",
        "value": "0x2386f26fc10000",
        "input": "0x6996c9980000000000000000000000000000000000000000000000000000000000000000000000000000000000000000000000000000000000000000002386f26fc1000000000000000000000000000000000000000000000000000000000000685d6bc900000000000000000000000000000000000000000000000000000038e04273e0",
        "nonce": "0x1b",
        "chainId": "0xa869"
      },
      "additionalContracts": [],
      "isFixedGasLimit": false
    }
  ],
  "receipts": [
    {
      "status": "0x1",
      "cumulativeGasUsed": "0xc8019",
      "logs": [
        {
          "address": "0x5274a2153cf842e3bd1d4996e01d567750d0e739",
          "topics": [
            "0xbcc702e99b0ad8d22e100d96ae453ca9aa06f2efc56af3692b83c2fbe902e360",
            "0x0000000000000000000000000000000000000000000000000000000000000002",
            "0x0000000000000000000000001b2fc03ad5405347a60b407929633ffc544f1db6",
            "0x0000000000000000000000000000000000000000000000000000000000000000"
          ],
          "data": "0x000000000000000000000000000000000000000000000000002386f26fc10000000000000000000000000000000000000000000000000000000000000000000000000000000000000000000000000000000000000000000000000000685d6bc90000000000000000000000000000000000000000000000000000000000000000",
          "blockHash": "0x84a526c48738ad9e1947edce3c31a399cd3f4b7ed8af940c33495a6b0e4959d8",
          "blockNumber": "0x288c09e",
          "transactionHash": "0xd6d68636ea93aa4003972a663ccf480b44e5907055e436d3ef67cab71a7bb643",
          "transactionIndex": "0x2",
          "logIndex": "0x16",
          "removed": false
        }
      ],
      "logsBloom": "0x24200000000000000000000000000000000000080000001000000000000000000000000000000000000000000000000000000000000000000000000000000000000000000000000000020000000000000000000000000000000000000000000000000000020000000000008000000800000000000000000000000000000000000000000000000000000000000000000000000000000000000000000000000000000000000000000000000100000001000000000000000000000000000000000000000000000000000000000000000000000000000000000000000000000020000000000010000000000000000000000000000400008000000000000000000000",
      "type": "0x2",
      "transactionHash": "0xd6d68636ea93aa4003972a663ccf480b44e5907055e436d3ef67cab71a7bb643",
      "transactionIndex": "0x2",
      "blockHash": "0x84a526c48738ad9e1947edce3c31a399cd3f4b7ed8af940c33495a6b0e4959d8",
      "blockNumber": "0x288c09e",
      "gasUsed": "0x285e9",
      "effectiveGasPrice": "0x3c9",
      "from": "0x1b2fc03ad5405347a60b407929633ffc544f1db6",
      "to": "0x5274a2153cf842e3bd1d4996e01d567750d0e739",
      "contractAddress": null
    },
    {
      "status": "0x1",
      "cumulativeGasUsed": "0xf5c3f",
      "logs": [
        {
          "address": "0x5274a2153cf842e3bd1d4996e01d567750d0e739",
          "topics": [
            "0xbcc702e99b0ad8d22e100d96ae453ca9aa06f2efc56af3692b83c2fbe902e360",
            "0x0000000000000000000000000000000000000000000000000000000000000003",
            "0x0000000000000000000000001b2fc03ad5405347a60b407929633ffc544f1db6",
            "0x0000000000000000000000000000000000000000000000000000000000000000"
          ],
          "data": "0x000000000000000000000000000000000000000000000000002386f26fc100000000000000000000000000000000000000000000000000000000000000000001000000000000000000000000000000000000000000000000000000000000000000000000000000000000000000000000000000000000000000000038e04273e0",
          "blockHash": "0x84a526c48738ad9e1947edce3c31a399cd3f4b7ed8af940c33495a6b0e4959d8",
          "blockNumber": "0x288c09e",
          "transactionHash": "0x903eae66caf04bbadcc2393d5cf3c4b5b0232a70afc4ec847df9fbb708a23cb4",
          "transactionIndex": "0x3",
          "logIndex": "0x17",
          "removed": false
        }
      ],
      "logsBloom": "0x20200000000000000000000000000000000000080000001000000000000000000000000000000000000000000000000000000000020000000000000000000000000000000000000000020000000000000000000000000000000000000000000000000000020000000000008000000800000000000000000000000000000000000000000000000000000000000000000000000000000000000000000000000000000000000000000000000000000001000000000000800000000000000000400000000000000000000000000000000000000000000000000000000000000020000000000010000000000000000000000000000400000000000000000000000000",
      "type": "0x2",
      "transactionHash": "0x903eae66caf04bbadcc2393d5cf3c4b5b0232a70afc4ec847df9fbb708a23cb4",
      "transactionIndex": "0x3",
      "blockHash": "0x84a526c48738ad9e1947edce3c31a399cd3f4b7ed8af940c33495a6b0e4959d8",
      "blockNumber": "0x288c09e",
      "gasUsed": "0x2dc26",
      "effectiveGasPrice": "0x3c9",
      "from": "0x1b2fc03ad5405347a60b407929633ffc544f1db6",
      "to": "0x5274a2153cf842e3bd1d4996e01d567750d0e739",
      "contractAddress": null
    },
    {
      "status": "0x1",
      "cumulativeGasUsed": "0x1286f7",
      "logs": [
        {
          "address": "0x5274a2153cf842e3bd1d4996e01d567750d0e739",
          "topics": [
            "0xbcc702e99b0ad8d22e100d96ae453ca9aa06f2efc56af3692b83c2fbe902e360",
            "0x0000000000000000000000000000000000000000000000000000000000000004",
            "0x0000000000000000000000001b2fc03ad5405347a60b407929633ffc544f1db6",
            "0x0000000000000000000000000000000000000000000000000000000000000000"
          ],
          "data": "0x000000000000000000000000000000000000000000000000002386f26fc10000000000000000000000000000000000000000000000000000000000000000000200000000000000000000000000000000000000000000000000000000685d6bc900000000000000000000000000000000000000000000000000000038e04273e0",
          "blockHash": "0x84a526c48738ad9e1947edce3c31a399cd3f4b7ed8af940c33495a6b0e4959d8",
          "blockNumber": "0x288c09e",
          "transactionHash": "0x6a06b926620883bd790fe1f203ad1bfd8dd23cdb32b429bc23a1cbb09b9ff04c",
          "transactionIndex": "0x4",
          "logIndex": "0x18",
          "removed": false
        }
      ],
      "logsBloom": "0x20200000000000000000000000000000000000080000001000000000000000000000000000000000000000000000000000000000000000000000000000000000000000000000000000020000000000000000000000000000000000000000000008000000020000000000008000000800000000000000000000000000000000000000000000000000000000000000000000000000000000000000000000000000000000000000000000000000000001000000000000000000002000000000000000000000000000000000000000000000000000008000000000000000000020000000000010000000000000000000000000000400000000000000000000000000",
      "type": "0x2",
      "transactionHash": "0x6a06b926620883bd790fe1f203ad1bfd8dd23cdb32b429bc23a1cbb09b9ff04c",
      "transactionIndex": "0x4",
      "blockHash": "0x84a526c48738ad9e1947edce3c31a399cd3f4b7ed8af940c33495a6b0e4959d8",
      "blockNumber": "0x288c09e",
      "gasUsed": "0x32ab8",
      "effectiveGasPrice": "0x3c9",
      "from": "0x1b2fc03ad5405347a60b407929633ffc544f1db6",
      "to": "0x5274a2153cf842e3bd1d4996e01d567750d0e739",
      "contractAddress": null
    }
  ],
  "libraries": [],
  "pending": [],
  "returns": {},
  "timestamp": 1750952882,
  "chain": 43113,
  "commit": null
}