{
  "transactions": [
    {
      "hash": "0x87c2dcfe8ec53c4d31212fc1637ea96db17494215bc98de7ef974d574d1b27f6",
      "transactionType": "CALL",
      "contractName": null,
      "contractAddress": "0xe1ce945ba38f07d4b66cbd1986b842408b6312a3",
      "function": "createTimeVault(address,uint256,uint256)",
      "arguments": [
        "0x0000000000000000000000000000000000000000",
        "10000000000000000",
        "1750951663"
      ],
      "transaction": {
        "from": "0x1b2fc03ad5405347a60b407929633ffc544f1db6",
        "to": "0xe1ce945ba38f07d4b66cbd1986b842408b6312a3",
        "gas": "0x3c951",
        "value": "0x2386f26fc10000",
        "input": "0x8a389fc10000000000000000000000000000000000000000000000000000000000000000000000000000000000000000000000000000000000000000002386f26fc1000000000000000000000000000000000000000000000000000000000000685d66ef",
        "nonce": "0x2",
        "chainId": "0xa869"
      },
      "additionalContracts": [],
      "isFixedGasLimit": false
    }
  ],
  "receipts": [
    {
      "status": "0x1",
      "cumulativeGasUsed": "0xc13d8",
      "logs": [
        {
          "address": "0xe1ce945ba38f07d4b66cbd1986b842408b6312a3",
          "topics": [
            "0xbcc702e99b0ad8d22e100d96ae453ca9aa06f2efc56af3692b83c2fbe902e360",
            "0x0000000000000000000000000000000000000000000000000000000000000001",
            "0x0000000000000000000000001b2fc03ad5405347a60b407929633ffc544f1db6",
            "0x0000000000000000000000000000000000000000000000000000000000000000"
          ],
          "data": "0x000000000000000000000000000000000000000000000000002386f26fc10000000000000000000000000000000000000000000000000000000000000000000000000000000000000000000000000000000000000000000000000000685d66ef0000000000000000000000000000000000000000000000000000000000000000",
          "blockHash": "0xda9dc5cf42cb988823b003b6447e4bf8025180bd234f998d567413c873f9334d",
          "blockNumber": "0x288b1d2",
          "transactionHash": "0x87c2dcfe8ec53c4d31212fc1637ea96db17494215bc98de7ef974d574d1b27f6",
          "transactionIndex": "0x4",
          "logIndex": "0x13",
          "removed": false
        }
      ],
      "logsBloom": "0x20200000000000000000000000000000000000080000000000000000000000000002000000000000000000000000000000000000000000000000000000040000000000020000000000000000000000000000000000040000000000000000000000000000020000000000008000000800000000000000000000000000000000400000000000000000000000000000000000000000000000000000000000000000000000000000000000000000000001000000000000000000000000000000000000000000000000000000000000000000000000000000000000000000000060000000000000000000000000000000000000000400000000000000000000000000",
      "type": "0x2",
      "transactionHash": "0x87c2dcfe8ec53c4d31212fc1637ea96db17494215bc98de7ef974d574d1b27f6",
      "transactionIndex": "0x4",
      "blockHash": "0xda9dc5cf42cb988823b003b6447e4bf8025180bd234f998d567413c873f9334d",
      "blockNumber": "0x288b1d2",
      "gasUsed": "0x2c8b5",
      "effectiveGasPrice": "0x2",
      "from": "0x1b2fc03ad5405347a60b407929633ffc544f1db6",
      "to": "0xe1ce945ba38f07d4b66cbd1986b842408b6312a3",
      "contractAddress": null
    }
  ],
  "libraries": [],
  "pending": [],
  "returns": {},
  "timestamp": 1750948080,
  "chain": 43113,
  "commit": null
}