{
  "transactions": [
    {
      "hash": "0xc30efa5f906b453cdf261ed148990b94461e40b8bd80a73aba73807017c6574f",
      "transactionType": "CALL",
      "contractName": null,
      "contractAddress": "0x5274a2153cf842e3bd1d4996e01d567750d0e739",
      "function": "setPriceFeed(address,address,uint256)",
      "arguments": [
        "0xd00ae08403B9bbb9124bB305C09058E32C39A48c",
        "0x5498BB86BC934c8D34FDA08E81D444153d0D06aD",
        "600"
      ],
      "transaction": {
        "from": "0x1b2fc03ad5405347a60b407929633ffc544f1db6",
        "to": "0x5274a2153cf842e3bd1d4996e01d567750d0e739",
        "gas": "0x14288",
        "value": "0x0",
        "input": "0xeceb9a9c000000000000000000000000d00ae08403b9bbb9124bb305c09058e32c39a48c0000000000000000000000005498bb86bc934c8d34fda08e81d444153d0d06ad0000000000000000000000000000000000000000000000000000000000000258",
        "nonce": "0x13",
        "chainId": "0xa869"
      },
      "additionalContracts": [],
      "isFixedGasLimit": false
    },
    {
      "hash": "0xde7f17a9f8d8c67ead7d52edfe34f23ff857a67f054117f8eeb9377de186ce22",
      "transactionType": "CALL",
      "contractName": null,
      "contractAddress": "0x5274a2153cf842e3bd1d4996e01d567750d0e739",
      "function": "setPriceFeed(address,address,uint256)",
      "arguments": [
        "0x0000000000000000000000000000000000000000",
        "0x86d67c3D38D2bCeE722E601025C25a575021c6EA",
        "14400"
      ],
      "transaction": {
        "from": "0x1b2fc03ad5405347a60b407929633ffc544f1db6",
        "to": "0x5274a2153cf842e3bd1d4996e01d567750d0e739",
        "gas": "0x140e4",
        "value": "0x0",
        "input": "0xeceb9a9c000000000000000000000000000000000000000000000000000000000000000000000000000000000000000086d67c3d38d2bcee722e601025c25a575021c6ea0000000000000000000000000000000000000000000000000000000000003840",
        "nonce": "0x14",
        "chainId": "0xa869"
      },
      "additionalContracts": [],
      "isFixedGasLimit": false
    },
    {
      "hash": "0xaa8d2d82aa1abe4d4f853547ec122007a0ef133d909a250ccfb7e91695065958",
      "transactionType": "CALL",
      "contractName": null,
      "contractAddress": "0x5274a2153cf842e3bd1d4996e01d567750d0e739",
      "function": "setCheckInterval(uint256)",
      "arguments": [
        "60"
      ],
      "transaction": {
        "from": "0x1b2fc03ad5405347a60b407929633ffc544f1db6",
        "to": "0x5274a2153cf842e3bd1d4996e01d567750d0e739",
        "gas": "0xa11f",
        "value": "0x0",
        "input": "0x6551d4e5000000000000000000000000000000000000000000000000000000000000003c",
        "nonce": "0x15",
        "chainId": "0xa869"
      },
      "additionalContracts": [],
      "isFixedGasLimit": false
    }
  ],
  "receipts": [
    {
      "status": "0x1",
      "cumulativeGasUsed": "0xdf9ce",
      "logs": [
        {
          "address": "0x5274a2153cf842e3bd1d4996e01d567750d0e739",
          "topics": [
            "0xa8abe0398416476db5b05737cd4da3b3cbde5012d978a6a6c3fd49d321753536",
            "0x000000000000000000000000d00ae08403b9bbb9124bb305c09058e32c39a48c",
            "0x0000000000000000000000005498bb86bc934c8d34fda08e81d444153d0d06ad"
          ],
          "data": "0x",
          "blockHash": "0xea89976e8487fe72a2f8372a545d27bb502c097d9d57e91a82601e54624a5878",
          "blockNumber": "0x288bdd9",
          "transactionHash": "0xc30efa5f906b453cdf261ed148990b94461e40b8bd80a73aba73807017c6574f",
          "transactionIndex": "0x6",
          "logIndex": "0xc",
          "removed": false
        }
      ],
      "logsBloom": "0x00000000000000000000000000000000000000000000001000000000000000000000000000000000000040000000000001000000000000000000000000000000000000000080000000020000010000000000000000000000000000000000000000000000000000000000000000000000000000000000000000000400000000000000000000000000000000000000000000000000000000000000000002000000000000000000000000000000000000000000000000000000080000000000000000000000000000000080000000000002000000000000000000000000000000000000000010000000000000000000000000000000000000000000000000000000",
      "type": "0x2",
      "transactionHash": "0xc30efa5f906b453cdf261ed148990b94461e40b8bd80a73aba73807017c6574f",
      "transactionIndex": "0x6",
      "blockHash": "0xea89976e8487fe72a2f8372a545d27bb502c097d9d57e91a82601e54624a5878",
      "blockNumber": "0x288bdd9",
      "gasUsed": "0xdc89",
      "effectiveGasPrice": "0x1a",
      "from": "0x1b2fc03ad5405347a60b407929633ffc544f1db6",
      "to": "0x5274a2153cf842e3bd1d4996e01d567750d0e739",
      "contractAddress": null
    },
    {
      "status": "0x1",
      "cumulativeGasUsed": "0xf3287",
      "logs": [
        {
          "address": "0x5274a2153cf842e3bd1d4996e01d567750d0e739",
          "topics": [
            "0xa8abe0398416476db5b05737cd4da3b3cbde5012d978a6a6c3fd49d321753536",
            "0x0000000000000000000000000000000000000000000000000000000000000000",
            "0x00000000000000000000000086d67c3d38d2bcee722e601025c25a575021c6ea"
          ],
          "data": "0x",
          "blockHash": "0xea89976e8487fe72a2f8372a545d27bb502c097d9d57e91a82601e54624a5878",
          "blockNumber": "0x288bdd9",
          "transactionHash": "0xde7f17a9f8d8c67ead7d52edfe34f23ff857a67f054117f8eeb9377de186ce22",
          "transactionIndex": "0x8",
          "logIndex": "0xd",
          "removed": false
        }
      ],
      "logsBloom": "0x00000000000000000000000000000000000000000000001000000200000000000000000000000000000000000000000000000000000000000000000020000000000000000080000000020000000000000000000000000000000000000000000000000000020000000000000000000800000000000000000000000400000000000000000000000000000000000000000000000000000000000000000000000000000000000000000000000000000000000000000000000000000000000000000000000000000000000080000000000000000000000000000000000000000020000000000010000000000000000040000000000000000000000000000000000000",
      "type": "0x2",
      "transactionHash": "0xde7f17a9f8d8c67ead7d52edfe34f23ff857a67f054117f8eeb9377de186ce22",
      "transactionIndex": "0x8",
      "blockHash": "0xea89976e8487fe72a2f8372a545d27bb502c097d9d57e91a82601e54624a5878",
      "blockNumber": "0x288bdd9",
      "gasUsed": "0xdb6a",
      "effectiveGasPrice": "0x1a",
      "from": "0x1b2fc03ad5405347a60b407929633ffc544f1db6",
      "to": "0x5274a2153cf842e3bd1d4996e01d567750d0e739",
      "contractAddress": null
    },
    {
      "status": "0x1",
      "cumulativeGasUsed": "0xfa72e",
      "logs": [
        {
          "address": "0x5274a2153cf842e3bd1d4996e01d567750d0e739",
          "topics": [
            "0xe18ae7fc35887e4dd8d6f25babba4cf6cdd53819c353b1a1897845a02d3da4c3"
          ],
          "data": "0x000000000000000000000000000000000000000000000000000000000000003c",
          "blockHash": "0xea89976e8487fe72a2f8372a545d27bb502c097d9d57e91a82601e54624a5878",
          "blockNumber": "0x288bdd9",
          "transactionHash": "0xaa8d2d82aa1abe4d4f853547ec122007a0ef133d909a250ccfb7e91695065958",
          "transactionIndex": "0x9",
          "logIndex": "0xe",
          "removed": false
        }
      ],
      "logsBloom": "0x00000000000000000000000000000000000000000000001000002000000000000000000000000000000000008000000000000000000000000000000000000000000000000000000000020000000000000000000000000000000000000000000000000000000000000000000000000000000000000000000000000000000000000000000000000000000000000000000000000000000000000000000000000000000000000000000000000000000000000000000000000000000000000000000000000000000000000000000000000000000000000000000000000000000000080000000010000000000000000000000000000000000000000000000000000000",
      "type": "0x2",
      "transactionHash": "0xaa8d2d82aa1abe4d4f853547ec122007a0ef133d909a250ccfb7e91695065958",
      "transactionIndex": "0x9",
      "blockHash": "0xea89976e8487fe72a2f8372a545d27bb502c097d9d57e91a82601e54624a5878",
      "blockNumber": "0x288bdd9",
      "gasUsed": "0x74a7",
      "effectiveGasPrice": "0x1a",
      "from": "0x1b2fc03ad5405347a60b407929633ffc544f1db6",
      "to": "0x5274a2153cf842e3bd1d4996e01d567750d0e739",
      "contractAddress": null
    }
  ],
  "libraries": [],
  "pending": [],
  "returns": {},
  "timestamp": 1750951679,
  "chain": 43113,
  "commit": null
}