{
  "transactions": [
    {
      "hash": "0xa14cb431912d3fbf43bff927b9a084a6affbd129443bc190c7927c6ce801b4e3",
      "transactionType": "CALL",
      "contractName": null,
      "contractAddress": "0x5274a2153cf842e3bd1d4996e01d567750d0e739",
      "function": "setTokenSupport(address,bool)",
      "arguments": [
        "0x0000000000000000000000000000000000000000",
        "true"
      ],
      "transaction": {
        "from": "0x1b2fc03ad5405347a60b407929633ffc544f1db6",
        "to": "0x5274a2153cf842e3bd1d4996e01d567750d0e739",
        "gas": "0x9562",
        "value": "0x0",
        "input": "0x0c6a753f00000000000000000000000000000000000000000000000000000000000000000000000000000000000000000000000000000000000000000000000000000001",
        "nonce": "0xa",
        "chainId": "0xa869"
      },
      "additionalContracts": [],
      "isFixedGasLimit": false
    },
    {
      "hash": "0xf85b38ee7a6c99d6d6bb1494a8ffe4ba92cf89b1f089f8c42d59a04f79b8971a",
      "transactionType": "CALL",
      "contractName": null,
      "contractAddress": "0x5274a2153cf842e3bd1d4996e01d567750d0e739",
      "function": "setTokenSupport(address,bool)",
      "arguments": [
        "0xd00ae08403B9bbb9124bB305C09058E32C39A48c",
        "true"
      ],
      "transaction": {
        "from": "0x1b2fc03ad5405347a60b407929633ffc544f1db6",
        "to": "0x5274a2153cf842e3bd1d4996e01d567750d0e739",
        "gas": "0x96ad",
        "value": "0x0",
        "input": "0x0c6a753f000000000000000000000000d00ae08403b9bbb9124bb305c09058e32c39a48c0000000000000000000000000000000000000000000000000000000000000001",
        "nonce": "0xb",
        "chainId": "0xa869"
      },
      "additionalContracts": [],
      "isFixedGasLimit": false
    },
    {
      "hash": "0xa19a09b8b7d3f91089e41867220ebcfcf47c8043018fefcae72de281e100da09",
      "transactionType": "CALL",
      "contractName": null,
      "contractAddress": "0x5274a2153cf842e3bd1d4996e01d567750d0e739",
      "function": "setPriceFeed(address,address,uint256)",
      "arguments": [
        "0x0000000000000000000000000000000000000000",
        "0x86d67c3D38D2bCeE722E601025C25a575021c6EA",
        "3600"
      ],
      "transaction": {
        "from": "0x1b2fc03ad5405347a60b407929633ffc544f1db6",
        "to": "0x5274a2153cf842e3bd1d4996e01d567750d0e739",
        "gas": "0x130e5",
        "value": "0x0",
        "input": "0xeceb9a9c000000000000000000000000000000000000000000000000000000000000000000000000000000000000000086d67c3d38d2bcee722e601025c25a575021c6ea0000000000000000000000000000000000000000000000000000000000000e10",
        "nonce": "0xc",
        "chainId": "0xa869"
      },
      "additionalContracts": [],
      "isFixedGasLimit": false
    },
    {
      "hash": "0x2bedf0d3acdb32cc1ab67100b284606d07f493f26630b448c555f6ecc99e324f",
      "transactionType": "CALL",
      "contractName": null,
      "contractAddress": "0x5274a2153cf842e3bd1d4996e01d567750d0e739",
      "function": "setPriceFeed(address,address,uint256)",
      "arguments": [
        "0xd00ae08403B9bbb9124bB305C09058E32C39A48c",
        "0x5498BB86BC934c8D34FDA08E81D444153d0D06aD",
        "3600"
      ],
      "transaction": {
        "from": "0x1b2fc03ad5405347a60b407929633ffc544f1db6",
        "to": "0x5274a2153cf842e3bd1d4996e01d567750d0e739",
        "gas": "0x13289",
        "value": "0x0",
        "input": "0xeceb9a9c000000000000000000000000d00ae08403b9bbb9124bb305c09058e32c39a48c0000000000000000000000005498bb86bc934c8d34fda08e81d444153d0d06ad0000000000000000000000000000000000000000000000000000000000000e10",
        "nonce": "0xd",
        "chainId": "0xa869"
      },
      "additionalContracts": [],
      "isFixedGasLimit": false
    },
    {
      "hash": "0xf914de75229ba892f3119919b23e864f7c34665e65a74bef18e7df2861886863",
      "transactionType": "CALL",
      "contractName": null,
      "contractAddress": "0x5274a2153cf842e3bd1d4996e01d567750d0e739",
      "function": "setCheckInterval(uint256)",
      "arguments": [
        "5"
      ],
      "transaction": {
        "from": "0x1b2fc03ad5405347a60b407929633ffc544f1db6",
        "to": "0x5274a2153cf842e3bd1d4996e01d567750d0e739",
        "gas": "0x9204",
        "value": "0x0",
        "input": "0x6551d4e50000000000000000000000000000000000000000000000000000000000000005",
        "nonce": "0xe",
        "chainId": "0xa869"
      },
      "additionalContracts": [],
      "isFixedGasLimit": false
    }
  ],
  "receipts": [
    {
      "status": "0x1",
      "cumulativeGasUsed": "0x48e70e",
      "logs": [
        {
          "address": "0x5274a2153cf842e3bd1d4996e01d567750d0e739",
          "topics": [
            "0xbbe72b7d9dcb594ee398a4a617885aba53d833e2aad601c813ce9df99fdeb49b",
            "0x0000000000000000000000000000000000000000000000000000000000000000"
          ],
          "data": "0x0000000000000000000000000000000000000000000000000000000000000001",
          "blockHash": "0x0187d4a9869b079c9bfbb6ef5de8b30da03090af5cdabd56eb0d20c6f6c519da",
          "blockNumber": "0x288b932",
          "transactionHash": "0xa14cb431912d3fbf43bff927b9a084a6affbd129443bc190c7927c6ce801b4e3",
          "transactionIndex": "0x9",
          "logIndex": "0x12",
          "removed": false
        }
      ],
      "logsBloom": "0x00000000000000000000000000000000000000000000001000000000000000000000000000000000000000000000000000000000000000000000000000000000000000000000000000020000000000000000000000000000000000000000001000000000020000000000000000000800000000000000000000000000000000000000000000000000000000000000000000000000000000000000000000000000000000000000000000000000000000000000000000000000000000000000000000000000000000000100000000000000000000000000000000000000000020000000000010000000000000000000000000000000000000004000000000000000",
      "type": "0x2",
      "transactionHash": "0xa14cb431912d3fbf43bff927b9a084a6affbd129443bc190c7927c6ce801b4e3",
      "transactionIndex": "0x9",
      "blockHash": "0x0187d4a9869b079c9bfbb6ef5de8b30da03090af5cdabd56eb0d20c6f6c519da",
      "blockNumber": "0x288b932",
      "gasUsed": "0x6c27",
      "effectiveGasPrice": "0x5",
      "from": "0x1b2fc03ad5405347a60b407929633ffc544f1db6",
      "to": "0x5274a2153cf842e3bd1d4996e01d567750d0e739",
      "contractAddress": null
    },
    {
      "status": "0x1",
      "cumulativeGasUsed": "0xc3a4d",
      "logs": [
        {
          "address": "0x5274a2153cf842e3bd1d4996e01d567750d0e739",
          "topics": [
            "0xbbe72b7d9dcb594ee398a4a617885aba53d833e2aad601c813ce9df99fdeb49b",
            "0x000000000000000000000000d00ae08403b9bbb9124bb305c09058e32c39a48c"
          ],
          "data": "0x0000000000000000000000000000000000000000000000000000000000000001",
          "blockHash": "0xc43fad9d0d5e5a64d2d3cf60b6e256e659c87342c141654fa526860131791465",
          "blockNumber": "0x288b934",
          "transactionHash": "0xf85b38ee7a6c99d6d6bb1494a8ffe4ba92cf89b1f089f8c42d59a04f79b8971a",
          "transactionIndex": "0x8",
          "logIndex": "0xd",
          "removed": false
        }
      ],
      "logsBloom": "0x00000000000000000000000000000000000000000000001000000000000000000000000000000000000000000000000000000000000000000000000000000000000000000000000000020000010000000000000000000000000000000000001000000000000000000000000000000000000000000000000000000000000000000000000000000000000000000000000000000000000000000000000002000000000000000000000000000000000000000000000000000000000000000000000000000000000000000100000000000002000000000000000000000000000000000000000010000000000000000000000000000000000000004000000000000000",
      "type": "0x2",
      "transactionHash": "0xf85b38ee7a6c99d6d6bb1494a8ffe4ba92cf89b1f089f8c42d59a04f79b8971a",
      "transactionIndex": "0x8",
      "blockHash": "0xc43fad9d0d5e5a64d2d3cf60b6e256e659c87342c141654fa526860131791465",
      "blockNumber": "0x288b934",
      "gasUsed": "0x6d17",
      "effectiveGasPrice": "0x5",
      "from": "0x1b2fc03ad5405347a60b407929633ffc544f1db6",
      "to": "0x5274a2153cf842e3bd1d4996e01d567750d0e739",
      "contractAddress": null
    },
    {
      "status": "0x1",
      "cumulativeGasUsed": "0x48c3db",
      "logs": [
        {
          "address": "0x5274a2153cf842e3bd1d4996e01d567750d0e739",
          "topics": [
            "0xa8abe0398416476db5b05737cd4da3b3cbde5012d978a6a6c3fd49d321753536",
            "0x0000000000000000000000000000000000000000000000000000000000000000",
            "0x00000000000000000000000086d67c3d38d2bcee722e601025c25a575021c6ea"
          ],
          "data": "0x",
          "blockHash": "0x36f0459e23ab491aba1d3e55241255b1317a09c5afd274ee0f04083cfa4ef994",
          "blockNumber": "0x288b937",
          "transactionHash": "0xa19a09b8b7d3f91089e41867220ebcfcf47c8043018fefcae72de281e100da09",
          "transactionIndex": "0x3",
          "logIndex": "0x28",
          "removed": false
        }
      ],
      "logsBloom": "0x00000000000000000000000000000000000000000000001000000200000000000000000000000000000000000000000000000000000000000000000020000000000000000080000000020000000000000000000000000000000000000000000000000000020000000000000000000800000000000000000000000400000000000000000000000000000000000000000000000000000000000000000000000000000000000000000000000000000000000000000000000000000000000000000000000000000000000080000000000000000000000000000000000000000020000000000010000000000000000040000000000000000000000000000000000000",
      "type": "0x2",
      "transactionHash": "0xa19a09b8b7d3f91089e41867220ebcfcf47c8043018fefcae72de281e100da09",
      "transactionIndex": "0x3",
      "blockHash": "0x36f0459e23ab491aba1d3e55241255b1317a09c5afd274ee0f04083cfa4ef994",
      "blockNumber": "0x288b937",
      "gasUsed": "0xd07a",
      "effectiveGasPrice": "0x5",
      "from": "0x1b2fc03ad5405347a60b407929633ffc544f1db6",
      "to": "0x5274a2153cf842e3bd1d4996e01d567750d0e739",
      "contractAddress": null
    },
    {
      "status": "0x1",
      "cumulativeGasUsed": "0x39885",
      "logs": [
        {
          "address": "0x5274a2153cf842e3bd1d4996e01d567750d0e739",
          "topics": [
            "0xa8abe0398416476db5b05737cd4da3b3cbde5012d978a6a6c3fd49d321753536",
            "0x000000000000000000000000d00ae08403b9bbb9124bb305c09058e32c39a48c",
            "0x0000000000000000000000005498bb86bc934c8d34fda08e81d444153d0d06ad"
          ],
          "data": "0x",
          "blockHash": "0x52af2bd498f3186d450ed4f0c3a45f4e05afe52156e50613a37ff4e346c941c7",
          "blockNumber": "0x288b93a",
          "transactionHash": "0x2bedf0d3acdb32cc1ab67100b284606d07f493f26630b448c555f6ecc99e324f",
          "transactionIndex": "0x1",
          "logIndex": "0x5",
          "removed": false
        }
      ],
      "logsBloom": "0x00000000000000000000000000000000000000000000001000000000000000000000000000000000000040000000000001000000000000000000000000000000000000000080000000020000010000000000000000000000000000000000000000000000000000000000000000000000000000000000000000000400000000000000000000000000000000000000000000000000000000000000000002000000000000000000000000000000000000000000000000000000080000000000000000000000000000000080000000000002000000000000000000000000000000000000000010000000000000000000000000000000000000000000000000000000",
      "type": "0x2",
      "transactionHash": "0x2bedf0d3acdb32cc1ab67100b284606d07f493f26630b448c555f6ecc99e324f",
      "transactionIndex": "0x1",
      "blockHash": "0x52af2bd498f3186d450ed4f0c3a45f4e05afe52156e50613a37ff4e346c941c7",
      "blockNumber": "0x288b93a",
      "gasUsed": "0xd199",
      "effectiveGasPrice": "0x5",
      "from": "0x1b2fc03ad5405347a60b407929633ffc544f1db6",
      "to": "0x5274a2153cf842e3bd1d4996e01d567750d0e739",
      "contractAddress": null
    },
    {
      "status": "0x1",
      "cumulativeGasUsed": "0x1785cb",
      "logs": [
        {
          "address": "0x5274a2153cf842e3bd1d4996e01d567750d0e739",
          "topics": [
            "0xe18ae7fc35887e4dd8d6f25babba4cf6cdd53819c353b1a1897845a02d3da4c3"
          ],
          "data": "0x0000000000000000000000000000000000000000000000000000000000000005",
          "blockHash": "0xcb9fbb03e8ab52f7dce2c9de3a642304482d95ce926d8af4badd2b71860f9906",
          "blockNumber": "0x288b93c",
          "transactionHash": "0xf914de75229ba892f3119919b23e864f7c34665e65a74bef18e7df2861886863",
          "transactionIndex": "0x3",
          "logIndex": "0x1a",
          "removed": false
        }
      ],
      "logsBloom": "0x00000000000000000000000000000000000000000000001000002000000000000000000000000000000000008000000000000000000000000000000000000000000000000000000000020000000000000000000000000000000000000000000000000000000000000000000000000000000000000000000000000000000000000000000000000000000000000000000000000000000000000000000000000000000000000000000000000000000000000000000000000000000000000000000000000000000000000000000000000000000000000000000000000000000000080000000010000000000000000000000000000000000000000000000000000000",
      "type": "0x2",
      "transactionHash": "0xf914de75229ba892f3119919b23e864f7c34665e65a74bef18e7df2861886863",
      "transactionIndex": "0x3",
      "blockHash": "0xcb9fbb03e8ab52f7dce2c9de3a642304482d95ce926d8af4badd2b71860f9906",
      "blockNumber": "0x288b93c",
      "gasUsed": "0x69b7",
      "effectiveGasPrice": "0x5",
      "from": "0x1b2fc03ad5405347a60b407929633ffc544f1db6",
      "to": "0x5274a2153cf842e3bd1d4996e01d567750d0e739",
      "contractAddress": null
    }
  ],
  "libraries": [],
  "pending": [],
  "returns": {},
  "timestamp": 1750950255,
  "chain": 43113,
  "commit": null
}