{
  "transactions": [
    {
      "hash": "0x809a6c552218032cbfaacc0c79f776acd4195bdfbdd4bbf30b6e87f12ac441c4",
      "transactionType": "CALL",
      "contractName": null,
      "contractAddress": "0x5274a2153cf842e3bd1d4996e01d567750d0e739",
      "function": "setTokenSupport(address,bool)",
      "arguments": [
        "0x0000000000000000000000000000000000000000",
        "true"
      ],
      "transaction": {
        "from": "0x1b2fc03ad5405347a60b407929633ffc544f1db6",
        "to": "0x5274a2153cf842e3bd1d4996e01d567750d0e739",
        "gas": "0x9562",
        "value": "0x0",
        "input": "0x0c6a753f00000000000000000000000000000000000000000000000000000000000000000000000000000000000000000000000000000000000000000000000000000001",
        "nonce": "0x5",
        "chainId": "0xa869"
      },
      "additionalContracts": [],
      "isFixedGasLimit": false
    },
    {
      "hash": "0x7a089d6e7c5a312ef4554df3c0a270750bcb8bf4e4190b400ae864f7486cf36c",
      "transactionType": "CALL",
      "contractName": null,
      "contractAddress": "0x5274a2153cf842e3bd1d4996e01d567750d0e739",
      "function": "setTokenSupport(address,bool)",
      "arguments": [
        "0xd00ae08403B9bbb9124bB305C09058E32C39A48c",
        "true"
      ],
      "transaction": {
        "from": "0x1b2fc03ad5405347a60b407929633ffc544f1db6",
        "to": "0x5274a2153cf842e3bd1d4996e01d567750d0e739",
        "gas": "0x1113a",
        "value": "0x0",
        "input": "0x0c6a753f000000000000000000000000d00ae08403b9bbb9124bb305c09058e32c39a48c0000000000000000000000000000000000000000000000000000000000000001",
        "nonce": "0x6",
        "chainId": "0xa869"
      },
      "additionalContracts": [],
      "isFixedGasLimit": false
    },
    {
      "hash": "0x1ce0b55a770f87a69ba95fe827443d40b72ca35987b6cc71b02f4b92f074e57e",
      "transactionType": "CALL",
      "contractName": null,
      "contractAddress": "0x5274a2153cf842e3bd1d4996e01d567750d0e739",
      "function": "setPriceFeed(address,address,uint256)",
      "arguments": [
        "0x0000000000000000000000000000000000000000",
        "0x86d67c3D38D2bCeE722E601025C25a575021c6EA",
        "3600"
      ],
      "transaction": {
        "from": "0x1b2fc03ad5405347a60b407929633ffc544f1db6",
        "to": "0x5274a2153cf842e3bd1d4996e01d567750d0e739",
        "gas": "0x26210",
        "value": "0x0",
        "input": "0xeceb9a9c000000000000000000000000000000000000000000000000000000000000000000000000000000000000000086d67c3d38d2bcee722e601025c25a575021c6ea0000000000000000000000000000000000000000000000000000000000000e10",
        "nonce": "0x7",
        "chainId": "0xa869"
      },
      "additionalContracts": [],
      "isFixedGasLimit": false
    },
    {
      "hash": "0x2fb99805e6f225d487269feaddb2ffa0bbbc66e13c2e10095169bbf0102a0a1d",
      "transactionType": "CALL",
      "contractName": null,
      "contractAddress": "0x5274a2153cf842e3bd1d4996e01d567750d0e739",
      "function": "setPriceFeed(address,address,uint256)",
      "arguments": [
        "0xd00ae08403B9bbb9124bB305C09058E32C39A48c",
        "0x5498BB86BC934c8D34FDA08E81D444153d0D06aD",
        "3600"
      ],
      "transaction": {
        "from": "0x1b2fc03ad5405347a60b407929633ffc544f1db6",
        "to": "0x5274a2153cf842e3bd1d4996e01d567750d0e739",
        "gas": "0x2639d",
        "value": "0x0",
        "input": "0xeceb9a9c000000000000000000000000d00ae08403b9bbb9124bb305c09058e32c39a48c0000000000000000000000005498bb86bc934c8d34fda08e81d444153d0d06ad0000000000000000000000000000000000000000000000000000000000000e10",
        "nonce": "0x8",
        "chainId": "0xa869"
      },
      "additionalContracts": [],
      "isFixedGasLimit": false
    },
    {
      "hash": "0xc6fbcea69c6e827ee94655812f8578baf1d8f625b0a0667b872b87749f04ddf2",
      "transactionType": "CALL",
      "contractName": null,
      "contractAddress": "0x5274a2153cf842e3bd1d4996e01d567750d0e739",
      "function": "setCheckInterval(uint256)",
      "arguments": [
        "5"
      ],
      "transaction": {
        "from": "0x1b2fc03ad5405347a60b407929633ffc544f1db6",
        "to": "0x5274a2153cf842e3bd1d4996e01d567750d0e739",
        "gas": "0xa11f",
        "value": "0x0",
        "input": "0x6551d4e50000000000000000000000000000000000000000000000000000000000000005",
        "nonce": "0x9",
        "chainId": "0xa869"
      },
      "additionalContracts": [],
      "isFixedGasLimit": false
    }
  ],
  "receipts": [
    {
      "status": "0x1",
      "cumulativeGasUsed": "0x2277e5",
      "logs": [
        {
          "address": "0x5274a2153cf842e3bd1d4996e01d567750d0e739",
          "topics": [
            "0xbbe72b7d9dcb594ee398a4a617885aba53d833e2aad601c813ce9df99fdeb49b",
            "0x0000000000000000000000000000000000000000000000000000000000000000"
          ],
          "data": "0x0000000000000000000000000000000000000000000000000000000000000001",
          "blockHash": "0xac146f1a57058487a42582fd47ebf5569ff020e0ebe011338ff07898bc6c43dc",
          "blockNumber": "0x288b4da",
          "transactionHash": "0x809a6c552218032cbfaacc0c79f776acd4195bdfbdd4bbf30b6e87f12ac441c4",
          "transactionIndex": "0x5",
          "logIndex": "0x15",
          "removed": false
        }
      ],
      "logsBloom": "0x00000000000000000000000000000000000000000000001000000000000000000000000000000000000000000000000000000000000000000000000000000000000000000000000000020000000000000000000000000000000000000000001000000000020000000000000000000800000000000000000000000000000000000000000000000000000000000000000000000000000000000000000000000000000000000000000000000000000000000000000000000000000000000000000000000000000000000100000000000000000000000000000000000000000020000000000010000000000000000000000000000000000000004000000000000000",
      "type": "0x2",
      "transactionHash": "0x809a6c552218032cbfaacc0c79f776acd4195bdfbdd4bbf30b6e87f12ac441c4",
      "transactionIndex": "0x5",
      "blockHash": "0xac146f1a57058487a42582fd47ebf5569ff020e0ebe011338ff07898bc6c43dc",
      "blockNumber": "0x288b4da",
      "gasUsed": "0x6c27",
      "effectiveGasPrice": "0x2",
      "from": "0x1b2fc03ad5405347a60b407929633ffc544f1db6",
      "to": "0x5274a2153cf842e3bd1d4996e01d567750d0e739",
      "contractAddress": null
    },
    {
      "status": "0x1",
      "cumulativeGasUsed": "0x2332b8",
      "logs": [
        {
          "address": "0x5274a2153cf842e3bd1d4996e01d567750d0e739",
          "topics": [
            "0xbbe72b7d9dcb594ee398a4a617885aba53d833e2aad601c813ce9df99fdeb49b",
            "0x000000000000000000000000d00ae08403b9bbb9124bb305c09058e32c39a48c"
          ],
          "data": "0x0000000000000000000000000000000000000000000000000000000000000001",
          "blockHash": "0xac146f1a57058487a42582fd47ebf5569ff020e0ebe011338ff07898bc6c43dc",
          "blockNumber": "0x288b4da",
          "transactionHash": "0x7a089d6e7c5a312ef4554df3c0a270750bcb8bf4e4190b400ae864f7486cf36c",
          "transactionIndex": "0x6",
          "logIndex": "0x16",
          "removed": false
        }
      ],
      "logsBloom": "0x00000000000000000000000000000000000000000000001000000000000000000000000000000000000000000000000000000000000000000000000000000000000000000000000000020000010000000000000000000000000000000000001000000000000000000000000000000000000000000000000000000000000000000000000000000000000000000000000000000000000000000000000002000000000000000000000000000000000000000000000000000000000000000000000000000000000000000100000000000002000000000000000000000000000000000000000010000000000000000000000000000000000000004000000000000000",
      "type": "0x2",
      "transactionHash": "0x7a089d6e7c5a312ef4554df3c0a270750bcb8bf4e4190b400ae864f7486cf36c",
      "transactionIndex": "0x6",
      "blockHash": "0xac146f1a57058487a42582fd47ebf5569ff020e0ebe011338ff07898bc6c43dc",
      "blockNumber": "0x288b4da",
      "gasUsed": "0xbad3",
      "effectiveGasPrice": "0x2",
      "from": "0x1b2fc03ad5405347a60b407929633ffc544f1db6",
      "to": "0x5274a2153cf842e3bd1d4996e01d567750d0e739",
      "contractAddress": null
    },
    {
      "status": "0x1",
      "cumulativeGasUsed": "0x24ec66",
      "logs": [
        {
          "address": "0x5274a2153cf842e3bd1d4996e01d567750d0e739",
          "topics": [
            "0xa8abe0398416476db5b05737cd4da3b3cbde5012d978a6a6c3fd49d321753536",
            "0x0000000000000000000000000000000000000000000000000000000000000000",
            "0x00000000000000000000000086d67c3d38d2bcee722e601025c25a575021c6ea"
          ],
          "data": "0x",
          "blockHash": "0xac146f1a57058487a42582fd47ebf5569ff020e0ebe011338ff07898bc6c43dc",
          "blockNumber": "0x288b4da",
          "transactionHash": "0x1ce0b55a770f87a69ba95fe827443d40b72ca35987b6cc71b02f4b92f074e57e",
          "transactionIndex": "0x7",
          "logIndex": "0x17",
          "removed": false
        }
      ],
      "logsBloom": "0x00000000000000000000000000000000000000000000001000000200000000000000000000000000000000000000000000000000000000000000000020000000000000000080000000020000000000000000000000000000000000000000000000000000020000000000000000000800000000000000000000000400000000000000000000000000000000000000000000000000000000000000000000000000000000000000000000000000000000000000000000000000000000000000000000000000000000000080000000000000000000000000000000000000000020000000000010000000000000000040000000000000000000000000000000000000",
      "type": "0x2",
      "transactionHash": "0x1ce0b55a770f87a69ba95fe827443d40b72ca35987b6cc71b02f4b92f074e57e",
      "transactionIndex": "0x7",
      "blockHash": "0xac146f1a57058487a42582fd47ebf5569ff020e0ebe011338ff07898bc6c43dc",
      "blockNumber": "0x288b4da",
      "gasUsed": "0x1b9ae",
      "effectiveGasPrice": "0x2",
      "from": "0x1b2fc03ad5405347a60b407929633ffc544f1db6",
      "to": "0x5274a2153cf842e3bd1d4996e01d567750d0e739",
      "contractAddress": null
    },
    {
      "status": "0x1",
      "cumulativeGasUsed": "0x26a733",
      "logs": [
        {
          "address": "0x5274a2153cf842e3bd1d4996e01d567750d0e739",
          "topics": [
            "0xa8abe0398416476db5b05737cd4da3b3cbde5012d978a6a6c3fd49d321753536",
            "0x000000000000000000000000d00ae08403b9bbb9124bb305c09058e32c39a48c",
            "0x0000000000000000000000005498bb86bc934c8d34fda08e81d444153d0d06ad"
          ],
          "data": "0x",
          "blockHash": "0xac146f1a57058487a42582fd47ebf5569ff020e0ebe011338ff07898bc6c43dc",
          "blockNumber": "0x288b4da",
          "transactionHash": "0x2fb99805e6f225d487269feaddb2ffa0bbbc66e13c2e10095169bbf0102a0a1d",
          "transactionIndex": "0x8",
          "logIndex": "0x18",
          "removed": false
        }
      ],
      "logsBloom": "0x00000000000000000000000000000000000000000000001000000000000000000000000000000000000040000000000001000000000000000000000000000000000000000080000000020000010000000000000000000000000000000000000000000000000000000000000000000000000000000000000000000400000000000000000000000000000000000000000000000000000000000000000002000000000000000000000000000000000000000000000000000000080000000000000000000000000000000080000000000002000000000000000000000000000000000000000010000000000000000000000000000000000000000000000000000000",
      "type": "0x2",
      "transactionHash": "0x2fb99805e6f225d487269feaddb2ffa0bbbc66e13c2e10095169bbf0102a0a1d",
      "transactionIndex": "0x8",
      "blockHash": "0xac146f1a57058487a42582fd47ebf5569ff020e0ebe011338ff07898bc6c43dc",
      "blockNumber": "0x288b4da",
      "gasUsed": "0x1bacd",
      "effectiveGasPrice": "0x2",
      "from": "0x1b2fc03ad5405347a60b407929633ffc544f1db6",
      "to": "0x5274a2153cf842e3bd1d4996e01d567750d0e739",
      "contractAddress": null
    },
    {
      "status": "0x1",
      "cumulativeGasUsed": "0x271bda",
      "logs": [
        {
          "address": "0x5274a2153cf842e3bd1d4996e01d567750d0e739",
          "topics": [
            "0xe18ae7fc35887e4dd8d6f25babba4cf6cdd53819c353b1a1897845a02d3da4c3"
          ],
          "data": "0x0000000000000000000000000000000000000000000000000000000000000005",
          "blockHash": "0xac146f1a57058487a42582fd47ebf5569ff020e0ebe011338ff07898bc6c43dc",
          "blockNumber": "0x288b4da",
          "transactionHash": "0xc6fbcea69c6e827ee94655812f8578baf1d8f625b0a0667b872b87749f04ddf2",
          "transactionIndex": "0x9",
          "logIndex": "0x19",
          "removed": false
        }
      ],
      "logsBloom": "0x00000000000000000000000000000000000000000000001000002000000000000000000000000000000000008000000000000000000000000000000000000000000000000000000000020000000000000000000000000000000000000000000000000000000000000000000000000000000000000000000000000000000000000000000000000000000000000000000000000000000000000000000000000000000000000000000000000000000000000000000000000000000000000000000000000000000000000000000000000000000000000000000000000000000000080000000010000000000000000000000000000000000000000000000000000000",
      "type": "0x2",
      "transactionHash": "0xc6fbcea69c6e827ee94655812f8578baf1d8f625b0a0667b872b87749f04ddf2",
      "transactionIndex": "0x9",
      "blockHash": "0xac146f1a57058487a42582fd47ebf5569ff020e0ebe011338ff07898bc6c43dc",
      "blockNumber": "0x288b4da",
      "gasUsed": "0x74a7",
      "effectiveGasPrice": "0x2",
      "from": "0x1b2fc03ad5405347a60b407929633ffc544f1db6",
      "to": "0x5274a2153cf842e3bd1d4996e01d567750d0e739",
      "contractAddress": null
    }
  ],
  "libraries": [],
  "pending": [],
  "returns": {},
  "timestamp": 1750948962,
  "chain": 43113,
  "commit": null
}